{
  "contractName": "Lottery",
  "abi": [
    {
      "inputs": [],
      "stateMutability": "nonpayable",
      "type": "constructor"
    },
    {
      "inputs": [],
      "name": "manager",
      "outputs": [
        {
          "internalType": "address",
          "name": "",
          "type": "address"
        }
      ],
      "stateMutability": "view",
      "type": "function",
      "constant": true
    },
    {
      "inputs": [
        {
          "internalType": "uint256",
          "name": "",
          "type": "uint256"
        }
      ],
      "name": "players",
      "outputs": [
        {
          "internalType": "address",
          "name": "",
          "type": "address"
        }
      ],
      "stateMutability": "view",
      "type": "function",
      "constant": true
    },
    {
      "inputs": [],
      "name": "enter",
      "outputs": [],
      "stateMutability": "payable",
      "type": "function",
      "payable": true
    },
    {
      "inputs": [],
      "name": "pickWinner",
      "outputs": [],
      "stateMutability": "payable",
      "type": "function",
      "payable": true
    },
    {
      "inputs": [],
      "name": "getPrizePool",
      "outputs": [
        {
          "internalType": "uint256",
          "name": "",
          "type": "uint256"
        }
      ],
      "stateMutability": "view",
      "type": "function",
      "constant": true
    },
    {
      "inputs": [],
      "name": "getPlayers",
      "outputs": [
        {
          "internalType": "address[]",
          "name": "",
          "type": "address[]"
        }
      ],
      "stateMutability": "view",
      "type": "function",
      "constant": true
    }
  ],
  "bytecode": "0x608060405234801561001057600080fd5b50336000806101000a81548173ffffffffffffffffffffffffffffffffffffffff021916908373ffffffffffffffffffffffffffffffffffffffff160217905550610a92806100606000396000f3fe6080604052600436106100555760003560e01c8063481c6a751461005a5780635d495aea14610085578063884bf67c1461008f5780638b5b9ccc146100ba578063e97dcb62146100e5578063f71d96cb146100ef575b600080fd5b34801561006657600080fd5b5061006f61012c565b60405161007c919061058a565b60405180910390f35b61008d610150565b005b34801561009b57600080fd5b506100a46102e8565b6040516100b191906105be565b60405180910390f35b3480156100c657600080fd5b506100cf6102f0565b6040516100dc9190610697565b60405180910390f35b6100ed61037e565b005b3480156100fb57600080fd5b50610116600480360381019061011191906106ea565b61042d565b604051610123919061058a565b60405180910390f35b60008054906101000a900473ffffffffffffffffffffffffffffffffffffffff1681565b60008054906101000a900473ffffffffffffffffffffffffffffffffffffffff1673ffffffffffffffffffffffffffffffffffffffff163373ffffffffffffffffffffffffffffffffffffffff16146101de576040517f08c379a00000000000000000000000000000000000000000000000000000000081526004016101d590610774565b60405180910390fd5b60006001805490506101ee61046c565b6101f891906107c3565b90506000600182815481106102105761020f6107f4565b5b9060005260206000200160009054906101000a900473ffffffffffffffffffffffffffffffffffffffff1690508073ffffffffffffffffffffffffffffffffffffffff166108fc479081150290604051600060405180830381858888f19350505050158015610283573d6000803e3d6000fd5b50600067ffffffffffffffff81111561029f5761029e610823565b5b6040519080825280602002602001820160405280156102cd5781602001602082028036833780820191505090505b50600190805190602001906102e39291906104a2565b505050565b600047905090565b6060600180548060200260200160405190810160405280929190818152602001828054801561037457602002820191906000526020600020905b8160009054906101000a900473ffffffffffffffffffffffffffffffffffffffff1673ffffffffffffffffffffffffffffffffffffffff168152602001906001019080831161032a575b5050505050905090565b67016345785d8a000034116103c8576040517f08c379a00000000000000000000000000000000000000000000000000000000081526004016103bf906108c4565b60405180910390fd5b6001339080600181540180825580915050600190039060005260206000200160009091909190916101000a81548173ffffffffffffffffffffffffffffffffffffffff021916908373ffffffffffffffffffffffffffffffffffffffff160217905550565b6001818154811061043d57600080fd5b906000526020600020016000915054906101000a900473ffffffffffffffffffffffffffffffffffffffff1681565b60004442600160405160200161048493929190610a23565b6040516020818303038152906040528051906020012060001c905090565b82805482825590600052602060002090810192821561051b579160200282015b8281111561051a5782518260006101000a81548173ffffffffffffffffffffffffffffffffffffffff021916908373ffffffffffffffffffffffffffffffffffffffff160217905550916020019190600101906104c2565b5b509050610528919061052c565b5090565b5b8082111561054557600081600090555060010161052d565b5090565b600073ffffffffffffffffffffffffffffffffffffffff82169050919050565b600061057482610549565b9050919050565b61058481610569565b82525050565b600060208201905061059f600083018461057b565b92915050565b6000819050919050565b6105b8816105a5565b82525050565b60006020820190506105d360008301846105af565b92915050565b600081519050919050565b600082825260208201905092915050565b6000819050602082019050919050565b61060e81610569565b82525050565b60006106208383610605565b60208301905092915050565b6000602082019050919050565b6000610644826105d9565b61064e81856105e4565b9350610659836105f5565b8060005b8381101561068a5781516106718882610614565b975061067c8361062c565b92505060018101905061065d565b5085935050505092915050565b600060208201905081810360008301526106b18184610639565b905092915050565b600080fd5b6106c7816105a5565b81146106d257600080fd5b50565b6000813590506106e4816106be565b92915050565b600060208284031215610700576106ff6106b9565b5b600061070e848285016106d5565b91505092915050565b600082825260208201905092915050565b7f596f7520617265206e6f7420746865206d616e61676572202121000000000000600082015250565b600061075e601a83610717565b915061076982610728565b602082019050919050565b6000602082019050818103600083015261078d81610751565b9050919050565b7f4e487b7100000000000000000000000000000000000000000000000000000000600052601260045260246000fd5b60006107ce826105a5565b91506107d9836105a5565b9250826107e9576107e8610794565b5b828206905092915050565b7f4e487b7100000000000000000000000000000000000000000000000000000000600052603260045260246000fd5b7f4e487b7100000000000000000000000000000000000000000000000000000000600052604160045260246000fd5b7f53656e642061746c65617374203120657468657220746f20656e74657220696e60008201527f746f2074686973206c6f74746572792021210000000000000000000000000000602082015250565b60006108ae603283610717565b91506108b982610852565b604082019050919050565b600060208201905081810360008301526108dd816108a1565b9050919050565b6000819050919050565b6108ff6108fa826105a5565b6108e4565b82525050565b600081549050919050565b600081905092915050565b60008190508160005260206000209050919050565b61093981610569565b82525050565b600061094b8383610930565b60208301905092915050565b60008160001c9050919050565b600073ffffffffffffffffffffffffffffffffffffffff82169050919050565b600061099761099283610957565b610964565b9050919050565b60006109aa8254610984565b9050919050565b6000600182019050919050565b60006109c982610905565b6109d38185610910565b93506109de8361091b565b8060005b83811015610a16576109f38261099e565b6109fd888261093f565b9750610a08836109b1565b9250506001810190506109e2565b5085935050505092915050565b6000610a2f82866108ee565b602082019150610a3f82856108ee565b602082019150610a4f82846109be565b915081905094935050505056fea26469706673582212206d30ce91535790fd086967d96a465f66173a36b9cfdec31472f3cb93df4d147864736f6c634300080d0033",
  "immutableReferences": {},
  "source": "// SPDX-License-Identifier: UNLICENSED\r\n\r\npragma solidity >=0.6;\r\n\r\ncontract Lottery {\r\n    address public manager;\r\n    address[] public players;\r\n\r\n    constructor() {\r\n        manager = msg.sender;\r\n    }\r\n\r\n    // Send some ether to enter into the lottery\r\n\r\n    function enter() public payable {\r\n        require(\r\n            msg.value > 0.1 ether,\r\n            \"Send atleast 1 ether to enter into this lottery !!\"\r\n        );\r\n        players.push(msg.sender);\r\n    }\r\n\r\n    // keccak256() is a global function in solidity for hashing\r\n    // block.difficulty is global = giver difficulty of current block\r\n    // block.timestamp is a global variable gives the current time\r\n    // abi.encodePacked() is used to encode data before hashing\r\n\r\n    function random() private view returns (uint256) {\r\n        return\r\n            uint256(\r\n                keccak256(\r\n                    abi.encodePacked(block.difficulty, block.timestamp, players)\r\n                )\r\n            );\r\n    }\r\n\r\n    // Creating an access specifier/modifier for a function validation\r\n    // This only allows the manager to run the function\r\n    // _; is a placeholder. When the function is called ,\r\n    // the require conditions are checked and if true ,\r\n    // _; is replaced by the code in the function body\r\n\r\n    modifier restricted() {\r\n        require(msg.sender == manager, \"You are not the manager !!\");\r\n        _;\r\n    }\r\n\r\n    function pickWinner() public payable restricted {\r\n        uint256 winIndex = random() % players.length;\r\n        address payable winner = payable(players[winIndex]); // 0x.....  It has various methods on it\r\n        winner.transfer(address(this).balance);\r\n        players = new address[](0); // Initializing a new dynamic array with 0x000000... value to reset the lottery\r\n    }\r\n\r\n    function getPrizePool() public view returns (uint256) {\r\n        return address(this).balance;\r\n    }\r\n\r\n    function getPlayers() public view returns (address[] memory) {\r\n        return players;\r\n    }\r\n}\r\n",
  "sourcePath": "D:\\Lottery-truffle\\contracts\\Lottery.sol",
  "compiler": {
    "name": "solc",
    "version": "0.8.13+commit.abaa5c0e.Emscripten.clang"
  },
  "schemaVersion": "3.4.6",
  "updatedAt": "2022-04-04T13:51:20.731Z",
  "networkType": "ethereum",
  "devdoc": {
    "kind": "dev",
    "methods": {},
    "version": 1
  },
  "userdoc": {
    "kind": "user",
    "methods": {},
    "version": 1
  }
}